:100000000C9450000C9426040C94FF030C9478007C
:100010000C9478000C9478000C9478000C94780080
:100020000C9478000C9478000C9478000C94780070
:100030000C9478000C9478000C9478000C94780060
:100040000C94B5030C9478000C9483030C945D031A
:100050000C9478000C9478000C9478000C94780040
:100060000C9478000C9478005E01011F01030301D9
:10007000008A02010A010202010064001E47040B0B
:100080000906007C0101060103030100F401060ECC
:100090000102020100C201170101020201014D0427
:1000A00011241FBECFEFD8E0DEBFCDBF11E0A0E02E
:1000B000B1E0E8E1FCE002C005900D92A039B10783
:1000C000D9F722E0A0E9B1E001C01D92AD3DB20731
:1000D000E1F710E0C0E5D0E004C02197FE010E94E6
:1000E000F605CF34D107C9F70E94A4040C940A0680
:1000F0000C940000CF92DF92EF92FF920F931F9328
:10010000CF93DF936C017A018B01C0E0D0E0CE1574
:10011000DF0589F0D8016D918D01D601ED91FC913B
:100120000190F081E02DC6010995892B11F47E0123
:1001300002C02196ECCFC701DF91CF911F910F91A3
:10014000FF90EF90DF90CF900895FC01918D828D0C
:10015000981761F0828DDF01A80FB11D5D968C911B
:10016000928D9F5F9F73928F90E008958FEF9FEF26
:100170000895FC01918D828D981731F0828DE80FE2
:10018000F11D858D90E008958FEF9FEF0895FC019C
:10019000918D228D892F90E0805C9F4F821B910969
:1001A0008F73992708958DE292E00E94C70021E0A5
:1001B000892B09F420E0822F0895FC01848DDF0152
:1001C000A80FB11DA35ABF4F2C91848D90E00196CA
:1001D0008F739927848FA689B7892C93A089B189B9
:1001E0008C9180648C93938D848D981306C00288C3
:1001F000F389E02D80818F7D80830895EF92FF92B7
:100200000F931F93CF93DF93EC0181E0888F9B8D39
:100210008C8D981305C0E889F989808185FD24C0FB
:10022000F62E0B8D10E00F5F1F4F0F731127E02E7E
:100230008C8DE8120CC00FB607FCFACFE889F9895B
:10024000808185FFF5CFCE010E94DD00F1CF8B8D3F
:10025000FE01E80FF11DE35AFF4FF0820B8FEA8990
:10026000FB898081806207C0EE89FF896083E8890D
:10027000F98980818064808381E090E0DF91CF9173
:100280001F910F91FF90EF900895CF93DF93EC01B2
:10029000888D8823C9F0EA89FB89808185FD05C0A6
:1002A000A889B9898C9186FD0FC00FB607FCF5CFE0
:1002B000808185FFF2CFA889B9898C9185FFEDCF28
:1002C000CE010E94DD00E7CFDF91CF91089580E05D
:1002D00090E0892B29F00E94D30081110C9400003A
:1002E00008953FB7F8948091250290912602A0913D
:1002F0002702B091280226B5A89B05C02F3F19F010
:100300000196A11DB11D3FBFBA2FA92F982F882795
:10031000820F911DA11DB11DBC01CD0142E0660FF0
:10032000771F881F991F4A95D1F7089508952F9236
:100330003F924F925F926F927F928F929F92AF9275
:10034000BF92CF92DF92EF92FF920F931F93CF93C2
:10035000DF93CDB7DEB765970FB6F894DEBF0FBE5B
:10036000CDBF0E9471016B017C0180911C029091B4
:100370001D022601481A590A2DEC421620E15206A8
:1003800008F4F6C08091960190919701A201481B54
:10039000590BCA0157FF03C0919581959109883C7B
:1003A00091050CF0E1C08091940190919501019626
:1003B0009093950180939401029709F0D5C098E637
:1003C000692E90E0792E01E010E0209092013090AB
:1003D00093013B862A8649E050E0B301CE010196A5
:1003E0000E9401068C816B81681708F4682F70E009
:1003F00080919601909197010E94C0059B014091C8
:10040000040150910501649FC001659F900D749F88
:10041000900D112464E670E00E94C0058985811169
:1004200003C0A1E0B0E002C0A2E0B0E08D81829FF5
:10043000A001839F500D11245D874C878E81829F80
:100440001001839F300C11243F862E868F81829F5E
:10045000A001839F500D1124598B488B8885829F62
:100460001001839F300C11243B8A2A8AFD01EE0F74
:10047000FF1FEA56FE4F812C912C54014A855B8563
:10048000415051095D8B4C8B8C899D89A817B90708
:1004900008F040C0880C991CAA1CBB1C808191816B
:1004A000AC012C843D844219530957FF03C0519578
:1004B000419551094617570770F4428153812E84A4
:1004C0003F844219530957FF03C051954195510983
:1004D00046175707E0F0288839888219930997FF53
:1004E00003C09195819591098617970780F58281C0
:1004F00093814A895B89841B950B97FF03C0919573
:10050000819591098617970710F5689480F81296DF
:100510003496BACF4A855B8548305105C0F0809249
:10052000CA029092CB02A092CC02B092CD021C01E2
:100530003694279430922C0220922B023093910112
:100540002093900110932A020093290209C00F5FA3
:100550001F4F59E0650E711C0730110509F035CFAA
:1005600010929501109294011092930110929201B1
:1005700080919201909193018334910540F0109203
:100580009301109292011092950110929401809122
:100590009201909193019C012F5F3F4F3093930103
:1005A00020939201880F991FFC01EA56FE4F518259
:1005B0004082C0921C02D0921D02E0921E02F09274
:1005C0001F0265960FB6F894DEBF0FBECDBFDF9158
:1005D000CF911F910F91FF90EF90DF90CF90BF9040
:1005E000AF909F908F907F906F905F904F903F90D3
:1005F0002F900895009769F0FC0101900020E9F721
:100600003197AF01481B590BBC018DE292E00C946D
:100610007A0080E090E00895CF93DF930E94FA0281
:10062000EC0186E191E00E94FA028C0F9D1FDF91A0
:10063000CF9108958F929F92AF92BF920F931F9385
:10064000CF93DF93CDB7DEB7A1970FB6F894DEBF97
:100650000FBECDBF19A2423008F44AE08E010F5DF3
:100660001F4F842E912CA12CB12CA50194010E9426
:10067000D405E62FB901CA0101501109EA3014F47A
:10068000E05D01C0E95CD801EC93232B242B252BE2
:1006900061F7C8010E94FA02A1960FB6F894DEBF76
:1006A0000FBECDBFDF91CF911F910F91BF90AF9043
:1006B0009F908F9008950E94FC051F920F920FB695
:1006C0000F9211242F933F934F935F936F937F93D8
:1006D0008F939F93AF93BF93EF93FF938DE292E03D
:1006E0000E94DD00FF91EF91BF91AF919F918F919B
:1006F0007F916F915F914F913F912F910F900FBE1E
:100700000F901F9018951F920F920FB60F92112401
:100710002F938F939F93EF93FF93E0913D02F0917E
:100720003E028081E0914302F091440282FD12C0BA
:100730009081809146028F5F8F73209147028217CC
:1007400051F0E0914602F0E0E35DFD4F958F80931C
:10075000460201C08081FF91EF919F918F912F916F
:100760000F900FBE0F901F9018951F920F920FB60B
:100770000F9211242F933F938F939F93AF93BF9327
:100780008091210290912202A0912302B091240233
:100790003091200223E0230F2D3720F40196A11D74
:1007A000B11D05C026E8230F0296A11DB11D20939F
:1007B00020028093210290932202A0932302B093FF
:1007C00024028091250290912602A0912702B091E7
:1007D00028020196A11DB11D809325029093260247
:1007E000A0932702B0932802BF91AF919F918F9160
:1007F0003F912F910F900FBE0F901F9018951F9251
:100800000F920FB60F9211242F933F934F935F9344
:100810006F937F938F939F93AF93BF93EF93FF93C8
:10082000E0910201F09103010995FF91EF91BF91D1
:10083000AF919F918F917F916F915F914F913F9178
:100840002F910F900FBE0F901F9018951F920F922F
:100850000FB60F9211242F933F934F935F936F9393
:100860007F938F939F93AF93BF93EF93FF93E09109
:100870000001F09101010995FF91EF91BF91AF91B6
:100880009F918F917F916F915F914F913F912F91A8
:100890000F900FBE0F901F9018950F931F93CF933B
:1008A000DF93EDE2F2E01382128288EE93E0A0E0A3
:1008B000B0E084839583A683B7838AE091E0918337
:1008C000808385EC90E09587848784EC90E097871F
:1008D000868780EC90E0918B808B81EC90E0938B0D
:1008E000828B82EC90E0958B848B86EC90E0978BEA
:1008F000868B118E128E138E148ECEECD2E00FEFFB
:100900001FEF1B830A838AE090E09D838C8349E07C
:1009100050E068E670E084ED92E00E9401061983E1
:1009200008838CE390E0909305018093040110927A
:10093000CA021092CB021092CC021092CD02DF912B
:10094000CF911F910F910895789484B5826084BDF2
:1009500084B5816084BD85B5826085BD85B58160C3
:1009600085BD80916E00816080936E001092810041
:1009700080918100826080938100809181008160FC
:1009800080938100809180008160809380008091BD
:10099000B10084608093B1008091B0008160809349
:1009A000B00080917A00846080937A0080917A0010
:1009B000826080937A0080917A00816080937A00CF
:1009C00080917A00806880937A001092C100E09153
:1009D0003D02F0913E0282E08083E0913902F09185
:1009E0003A021082E0913B02F0913C0280E1808368
:1009F00010924502E0914102F091420286E080832C
:100A0000E0913F02F0914002808180618083E0911B
:100A10003F02F0914002808188608083E0913F0234
:100A2000F0914002808180688083E0913F02F091E4
:100A3000400280818F7D80830E9471014B015C01A7
:100A400088EEC82E83E0D82EE12CF12C0E94710193
:100A5000DC01CB0188199909AA09BB09883E93409A
:100A6000A105B10558F021E0C21AD108E108F1084A
:100A700088EE880E83E0981EA11CB11CC114D1041D
:100A8000E104F10419F789E191E00E940C0310924E
:100A9000CF021092CE021092CA021092CB02109294
:100AA000CC021092CD0210922C0210922B0287E9F8
:100AB00091E09093010180930001809169008C7F07
:100AC000816080936900E89A84E591E00E940C03BC
:100AD0008091CA029091CB02A091CC02B091CD023C
:100AE000892B8A2B8B2B09F448C08091CA029091E4
:100AF000CB02A091CC02B091CD02892B29F481E6E2
:100B000091E00E940C0331C082E791E00E94FA025A
:100B10006091CA027091CB028091CC029091CD027B
:100B20004AE00E941A038CE791E00E94FA02609169
:100B30002B0270912C0280E090E04AE00E941A03A0
:100B400080E891E00E94FA0285E891E00E94FA02B2
:100B50006091290270912A0280E090E04AE00E94B0
:100B60001A0386E191E00E94FA021092CA021092E2
:100B7000CB021092CC021092CD020E946701A8CF46
:100B8000AA1BBB1B51E107C0AA1FBB1FA617B707B3
:100B900010F0A61BB70B881F991F5A95A9F78095CF
:100BA0009095BC01CD010895A1E21A2EAA1BBB1B92
:100BB000FD010DC0AA1FBB1FEE1FFF1FA217B30729
:100BC000E407F50720F0A21BB30BE40BF50B661F3F
:100BD000771F881F991F1A9469F760957095809503
:100BE00090959B01AC01BD01CF010895EE0FFF1F51
:100BF0000590F491E02D099481E090E0F8940C9434
:100C00000A06FB01DC0102C005900D9241505040E4
:080C1000D8F70895F894FFCF16
:100C1800960196013C0000000000FE007A00C70023
:100C2800A500B90045010D0A002D2D2D2D2D2D2DC6
:100C38002D2D2D2D2D2D2D2D2D2D2D2D2D2D2D2DDC
:100C48002D2D2D2D2D2D2D2D2D2D2D2D2D2D2D2DCC
:100C58002D2D2D2D2D2D2D2D2D2D2D2D2D2D2D2DBC
:100C68002D2D2D007365747570206C6F616465643B
:100C780000556E6B6E6F776E20656E636F64696E7C
:100C8800670052656365697665642000202F20003F
:100C9800626974200050726F746F636F6C3A200041
:00000001FF
