:100000000C9478000C943D060C9416060C94A000F9
:100010000C94A0000C94A0000C94A0000C94A000E0
:100020000C94A0000C94A0000C94A0000C94A000D0
:100030000C94A0000C94A0000C94A0000C94A000C0
:100040000C94CC050C94A0000C949A050C947405A7
:100050000C94A0000C94A0000C94A0000C94A000A0
:100060000C94A0000C94A0000000000024002700C5
:100070002A0000000000250028002B0004040404CE
:100080000404040402020202020203030303030342
:10009000010204081020408001020408102001021F
:1000A00004081020000000080002010000030407FB
:1000B00000000000000000005E01011F01030301B9
:1000C000008A02010A010202010064001E47040BBB
:1000D0000906007C0101060103030100F401060E7C
:1000E0000102020100C201170101020201016406BE
:1000F00011241FBECFEFD8E0DEBFCDBF11E0A0E0DE
:10010000B1E0EEECF5E102C005900D92A83DB1071B
:10011000D9F723E0A8EDB1E001C01D92A133B207E9
:10012000E1F710E0C8E7D0E004C02197FE010E948B
:100130005E08C737D107C9F70E94BB060C94E50AD1
:100140000C94000080911E0390911F038F3F2FEFAE
:10015000920741F110921A0310921B0310921C0394
:1001600010921D0310927C0210927B02282F823085
:10017000C8F4FC01FF27EE0FFF1FE050FF4F81E0A6
:1001800093E09183808380916900213031F08C7FEE
:10019000816080936900E89A0895837F84608093EA
:1001A0006900E99A08950895CF92DF92EF92FF9245
:1001B0000F931F93CF93DF936C017A018B01C0E003
:1001C000D0E0CE15DF0589F0D8016D918D01D60103
:1001D000ED91FC910190F081E02DC6010995892BEC
:1001E00011F47E0102C02196ECCFC701DF91CF91BF
:1001F0001F910F91FF90EF90DF90CF900895FC0139
:10020000918D828D981761F0828DDF01A80FB11D4D
:100210005D968C91928D9F5F9F73928F90E0089571
:100220008FEF9FEF0895FC01918D828D981731F02B
:10023000828DE80FF11D858D90E008958FEF9FEF7F
:100240000895FC01918D228D892F90E0805C9F4F55
:10025000821B91098F73992708958DE792E00E9480
:10026000210121E0892B09F420E0822F0895FC016F
:10027000848DDF01A80FB11DA35ABF4F2C91848D2F
:1002800090E001968F739927848FA689B7892C9364
:10029000A089B1898C9180648C93938D848D9813FF
:1002A00006C00288F389E02D80818F7D80830895C8
:1002B000EF92FF920F931F93CF93DF93EC0181E0B6
:1002C000888F9B8D8C8D981305C0E889F989808172
:1002D00085FD24C0F62E0B8D10E00F5F1F4F0F73AE
:1002E0001127E02E8C8DE8120CC00FB607FCFACF58
:1002F000E889F989808185FFF5CFCE010E94370119
:10030000F1CF8B8DFE01E80FF11DE35AFF4FF08214
:100310000B8FEA89FB898081806207C0EE89FF89A3
:100320006083E889F98980818064808381E090E03E
:10033000DF91CF911F910F91FF90EF900895CF9390
:10034000DF93EC01888D8823C9F0EA89FB898081DD
:1003500085FD05C0A889B9898C9186FD0FC00FB6AF
:1003600007FCF5CF808185FFF2CFA889B9898C91F0
:1003700085FFEDCFCE010E943701E7CFDF91CF910E
:10038000089580E090E0892B29F00E942D018111D1
:100390000C9400000895833081F028F4813099F0A6
:1003A0008230A1F008958730A9F08830B9F0843008
:1003B000D1F4809180008F7D03C0809180008F7781
:1003C00080938000089584B58F7702C084B58F7DB7
:1003D00084BD08958091B0008F7703C08091B000F4
:1003E0008F7D8093B00008951F93CF93DF93282FC4
:1003F00030E0F901EC55FF4F8491F901E057FF4FD0
:10040000D491F901E458FF4FC491CC23C9F0162FC1
:1004100081110E94CB01EC2FF0E0EE0FFF1FEE5890
:10042000FF4FA591B4918FB7F894111105C09C911D
:10043000ED2FE095E92302C0EC91ED2BEC938FBFFB
:10044000DF91CF911F9108951F93CF93DF93182FC2
:10045000D92F80912C03882319F060E0C1E002C0FD
:1004600061E0C0E0809120030E94F40140912403E8
:1004700050912503149F9001159F300D11242230B7
:10048000310540F0C901880F991F880F991F059702
:100490000197F1F76C2F809120030E94F4012091C5
:1004A000240330912503D29FC001D39F900D1124C6
:1004B0008230910538F0880F991F880F991F059792
:1004C0000197F1F7DF91CF911F910895CF93DF93BB
:1004D00090E0FC01E057FF4F2491FC01E458FF4FEE
:1004E0008491882361F190E0880F991FFC01E859FD
:1004F000FF4FC591D491FC01EE58FF4FA591B491E7
:10050000611109C09FB7F894888120958223888360
:10051000EC912E230BC0623061F49FB7F8943881C0
:10052000822F809583238883EC912E2B2C939FBF61
:1005300006C08FB7F894E8812E2B28838FBFDF91F8
:10054000CF9108953FB7F89480916F029091700217
:10055000A0917102B091720226B5A89B05C02F3FF1
:1005600019F00196A11DB11D3FBFBA2FA92F982FD9
:100570008827820F911DA11DB11DBC01CD0142E054
:10058000660F771F881F991F4A95D1F708958F929C
:100590009F92AF92BF92CF92DF92EF92FF926B0148
:1005A0007C010E94A2024B015C01C114D104E10450
:1005B000F104F1F00E94A202DC01CB018819990933
:1005C000AA09BB09883E9340A105B10570F321E05B
:1005D000C21AD108E108F10888EE880E83E0981E5F
:1005E000A11CB11CC114D104E104F10419F7DDCF41
:1005F000FF90EF90DF90CF90BF90AF909F908F9043
:1006000008952F923F924F925F926F927F928F92B6
:100610009F92AF92BF92CF92DF92EF92FF920F9391
:100620001F93CF93DF93CDB7DEB765970FB6F894DE
:10063000DEBF0FBECDBF0E94A2026B017C01809184
:100640006602909167022601481A590A2DEC42165B
:1006500020E1520608F4F6C08091E0019091E1019A
:10066000A201481B590BCA0157FF03C09195819500
:100670009109883C91050CF0E1C08091DE019091D8
:10068000DF0101969093DF018093DE01029709F06C
:10069000D5C098EB692E90E0792E01E010E0209013
:1006A000DC013090DD013B862A8649E050E0B30151
:1006B000CE0101960E94700A8C816B81681708F444
:1006C000682F70E08091E0019091E1010E9428087C
:1006D0009B014091040150910501649FC001659FF9
:1006E000900D749F900D112464E670E00E9428081C
:1006F0008985811103C0A1E0B0E002C0A2E0B0E0B2
:100700008D81829FA001839F500D11245D874C87AE
:100710008E81829F1001839F300C11243F862E868C
:100720008F81829FA001839F500D1124598B488B8C
:100730008885829F1001839F300C11243B8A2A8A6E
:10074000FD01EE0FFF1FE052FE4F812C912C540152
:100750004A855B85415051095D8B4C8B8C899D8905
:10076000A817B90708F040C0880C991CAA1CBB1C2C
:1007700080819181AC012C843D844219530957FF3B
:1007800003C05195419551094617570770F44281AE
:1007900053812E843F844219530957FF03C051955A
:1007A0004195510946175707E0F028883988821982
:1007B000930997FF03C09195819591098617970733
:1007C00080F5828193814A895B89841B950B97FF11
:1007D00003C09195819591098617970710F5689444
:1007E00080F812963496BACF4A855B854830510519
:1007F000C0F080921A0390921B03A0921C03B09247
:100800001D031C013694279430927C0220927B02B7
:100810003093DB012093DA011093D9010093D801C2
:1008200009C00F5F1F4F59E0650E711C073011059D
:1008300009F035CF1092DF011092DE011092DD0138
:100840001092DC018091DC019091DD0183349105EF
:1008500040F01092DD011092DC011092DF01109245
:10086000DE018091DC019091DD019C012F5F3F4F03
:100870003093DD012093DC01880F991FFC01E052C9
:10088000FE4F51824082C0926602D0926702E0928F
:100890006802F092690265960FB6F894DEBF0FBE4B
:1008A000CDBFDF91CF911F910F91FF90EF90DF901F
:1008B000CF90BF90AF909F908F907F906F905F9000
:1008C0004F903F902F900895009769F0FC010190A0
:1008D0000020E9F73197AF01481B590BBC018DE7A8
:1008E00092E00C94D40080E090E00895CF93DF93E1
:1008F000FC0144815581608171818DE792E00E9405
:10090000D400EC018CE191E00E9464048C0F9D1FE7
:10091000DF91CF910895CF93DF930E946404EC019F
:100920008CE191E00E9464048C0F9D1FDF91CF91B8
:1009300008958F929F92AF92BF920F931F93CF9380
:10094000DF93CDB7DEB7A1970FB6F894DEBF0FBE29
:10095000CDBF19A2423008F44AE08E010F5D1F4F4F
:10096000842E912CA12CB12CA50194010E943C084D
:10097000E62FB901CA0101501109EA3014F4E05D13
:1009800001C0E95CD801EC93232B242B252B61F7C4
:10099000C8010E946404A1960FB6F894DEBF0FBE92
:1009A000CDBFDF91CF911F910F91BF90AF909F90DE
:1009B0008F900895CF93DF93EC0188819981009700
:1009C00011F00E94F908198218821D821C821B8274
:1009D0001A82DF91CF9108950E945B0A0F931F93B3
:1009E000CF93DF93EC0188819981009729F02A81C8
:1009F0003B812617370788F48B016F5F7F4F0E947A
:100A00009109009761F0998388831B830A832C8165
:100A10003D81232B11F4FC01108281E001C080E0B4
:100A2000DF91CF911F910F910895EF92FF920F9355
:100A30001F93CF93DF93EC017B018A01BA010E94DF
:100A4000EE04811104C0CE010E94DA0407C01D83A8
:100A50000C83B701888199810E94690ACE01DF91D8
:100A6000CF911F910F91FF90EF9008958FE191E04A
:100A70000E94640460911A0370911B0380911C030F
:100A800090911D034AE00E9499048EE291E00E9439
:100A9000640460917B0270917C0280E090E04AE007
:100AA0000E9499048BE291E00E94640482E391E049
:100AB0000E9464046091D8017091D90180E090E0B7
:100AC0004AE00E9499048DE391E00E9464046091E1
:100AD000DA017091DB0180E090E04AE00E94990425
:100AE00085E491E00C9464041F920F920FB60F926C
:100AF00011242F933F934F935F936F937F938F9323
:100B00009F93AF93BF93EF93FF938DE792E00E9483
:100B10003701FF91EF91BF91AF919F918F917F919D
:100B20006F915F914F913F912F910F900FBE0F905A
:100B30001F9018951F920F920FB60F9211242F93AA
:100B40008F939F93EF93FF93E0918D02F0918E022C
:100B50008081E0919302F091940282FD12C0908115
:100B6000809196028F5F8F7320919702821751F0C8
:100B7000E0919602F0E0E358FD4F958F8093960246
:100B800001C08081FF91EF919F918F912F910F90E4
:100B90000FBE0F901F9018951F920F920FB60F92D5
:100BA00011242F933F938F939F93AF93BF93809183
:100BB0006B0290916C02A0916D02B0916E02309127
:100BC0006A0223E0230F2D3720F40196A11DB11DE9
:100BD00005C026E8230F0296A11DB11D20936A02CD
:100BE00080936B0290936C02A0936D02B0936E029F
:100BF00080916F0290917002A0917102B091720287
:100C00000196A11DB11D80936F0290937002A09375
:100C10007102B0937202BF91AF919F918F913F91FA
:100C20002F910F900FBE0F901F9018951F920F924B
:100C30000FB60F9211242F933F934F935F936F93AF
:100C40007F938F939F93AF93BF93EF93FF93E09125
:100C50000201F09103010995FF91EF91BF91AF91CE
:100C60009F918F917F916F915F914F913F912F91C4
:100C70000F900FBE0F901F9018951F920F920FB6F6
:100C80000F9211242F933F934F935F936F937F9312
:100C90008F939F93AF93BF93EF93FF93E0910001E6
:100CA000F09101010995FF91EF91BF91AF919F9153
:100CB0008F917F916F915F914F913F912F910F9005
:100CC0000FBE0F901F9018950F931F93CF93DF9334
:100CD000EDE7F2E01382128288EE93E0A0E0B0E04C
:100CE00084839583A683B78380E191E09183808399
:100CF00085EC90E09587848784EC90E097878687E1
:100D000080EC90E0918B808B81EC90E0938B828BD8
:100D100082EC90E0958B848B86EC90E0978B868BB1
:100D2000118E128E138E148ECEE1D3E00FEF1FEFD3
:100D30001B830A838AE090E09D838C8349E050E026
:100D400068EB70E084E293E00E94700A19830883E4
:100D50008CE390E0909305018093040110921A03B4
:100D600010921B0310921C0310921D03DF91CF9170
:100D70001F910F910895CF93DF93CDB7DEB768979A
:100D80000FB6F894DEBF0FBECDBF789484B58260F5
:100D900084BD84B5816084BD85B5826085BD85B51F
:100DA000816085BD80916E00816080936E0010929D
:100DB0008100809181008260809381008091810018
:100DC00081608093810080918000816080938000A9
:100DD0008091B10084608093B1008091B000816007
:100DE0008093B00080917A00846080937A00809133
:100DF0007A00826080937A0080917A00816080938B
:100E00007A0080917A00806880937A001092C10005
:100E1000E0918D02F0918E0282E08083E091890260
:100E2000F0918A021082E0918B02F0918C0280E1B5
:100E3000808310929502E0919102F091920286E0F7
:100E40008083E0918F02F0919002808180618083A5
:100E5000E0918F02F0919002808188608083E09120
:100E60008F02F0919002808180688083E0918F02F0
:100E7000F091900280818F7D808361E084E00E9408
:100E8000660261E083E00E94660260E086E00E9404
:100E9000660210921F0310921E030E94A20061E0DE
:100EA00084E00E94F40161E083E00E94F4018EE19D
:100EB00091E00E948B048DE491E00E948B0480EA13
:100EC00091E00E948B0468EE73E080E090E00E9465
:100ED000C70260E084E00E94F40160E083E00E94C9
:100EE000F4018AEB91E00E948B048E010F5F1F4F8B
:100EF00060E084E00E94F40180911A0390911B034A
:100F0000A0911C03B0911D03892B8A2B8B2B09F414
:100F100098C061E084E00E94F401C0901A03D09070
:100F20001B03E0901C03F0901D032EEAC21628E07C
:100F3000D20679F50E94A202C0907702D090780282
:100F4000E0907902F0907A02DC01CB018C199D09C6
:100F5000AE09BF098093730290937402A093750247
:100F6000B0937602813E9349A440B10568F00E9497
:100F700036050E94A20260937702709378028093F4
:100F8000790290937A0255C087EC91E00E94640444
:100F900050C00E9436051C8A1B8A1E8A1D8A188E24
:100FA0001F8A4AE0B801C6010E94790AF80101903F
:100FB0000020E9F73197AF01401B510BB801CE017A
:100FC00043960E9415051A8219821C821B821E827A
:100FD0001D824EE050E069EC71E0C8010E941505E9
:100FE0008F89988DCB88DC88ED80FE80C114D10478
:100FF00059F1009799F0E80EF91EB701C8010E9457
:10100000EE04882309F129813A818D819E81B60100
:10101000820F931F0E94690AFE82ED82C8010E941E
:10102000760489819A810E94F9088B899C890E94A3
:10103000F90810921A0310921B0310921C031092CD
:101040001D030E94C10154CFC8010E94DA04E6CFFB
:10105000AA1BBB1B51E107C0AA1FBB1FA617B707DE
:1010600010F0A61BB70B881F991F5A95A9F78095FA
:101070009095BC01CD010895A1E21A2EAA1BBB1BBD
:10108000FD010DC0AA1FBB1FEE1FFF1FA217B30754
:10109000E407F50720F0A21BB30BE40BF50B661F6A
:1010A000771F881F991F1A9469F76095709580952E
:1010B00090959B01AC01BD01CF010895EE0FFF1F7C
:1010C0000590F491E02D0994CF93DF938230910540
:1010D00010F482E090E0E0912F03F091300320E0E3
:1010E00030E0C0E0D0E0309711F1408151814817E5
:1010F0005907C0F04817590761F4828193812097FE
:1011000019F09B838A832BC09093300380932F0325
:1011100026C02115310519F04217530718F49A011A
:10112000BE01DF01EF010280F381E02DDCCF21154C
:10113000310509F1281B390B2430310590F4129642
:101140008D919C9113976115710521F0FB0193839B
:10115000828304C09093300380932F03FD01329665
:1011600044C0FD01E20FF31F819391932250310996
:101170002D933C933AC020912D0330912E03232BC5
:1011800041F4209108013091090130932E032093FE
:101190002D0320910601309107012115310541F4FD
:1011A0002DB73EB740910A0150910B01241B350B1E
:1011B000E0912D03F0912E03E217F307A0F42E1B0C
:1011C0003F0B2817390778F0AC014E5F5F4F2417AB
:1011D000350748F04E0F5F1F50932E0340932D03A9
:1011E0008193919302C0E0E0F0E0CF01DF91CF91D5
:1011F00008950F931F93CF93DF93009709F48CC04A
:10120000FC0132971382128200912F031091300358
:101210000115110581F420813181820F931F2091E6
:101220002D0330912E032817390779F5F0932E03FB
:10123000E0932D0371C0D80140E050E0AE17BF0726
:1012400050F412962D913C911397AD012115310563
:1012500009F1D901F3CF9D01DA0133832283608143
:101260007181860F971F8217930769F4EC0128811B
:101270003981260F371F2E5F3F4F318320838A81AC
:101280009B8193838283452B29F4F0933003E09371
:101290002F0342C01396FC93EE931297ED014991F0
:1012A00059919E01240F351FE217F30771F48081D5
:1012B0009181840F951F029611969C938E93828143
:1012C000938113969C938E931297E0E0F0E0D801FF
:1012D00012968D919C911397009719F0F8018C014B
:1012E000F6CF8D919C9198012E5F3F4F820F931FF7
:1012F00020912D0330912E032817390769F4309778
:1013000029F41092300310922F0302C0138212822C
:1013100010932E0300932D03DF91CF911F910F9116
:101320000895A0E0B0E0E7E9F9E00C94B20AEC011E
:10133000009721F4CB010E946408B8C0FC01E60FBD
:10134000F71F9C0122503109E217F30708F4ACC0E3
:10135000D9010D911C91119706171707B0F00530B0
:10136000110508F49FC0C80104978617970708F471
:1013700099C002501109061B170B019311936D932D
:101380007C93CF010E94F9088DC05B01A01AB10ABD
:101390004C01800E911EA0912F03B091300340E0CC
:1013A00050E0E12CF12C109709F44AC0A815B905BA
:1013B000D1F56D907C901197630182E0C80ED11C2D
:1013C000CA14DB0480F1A3014A195B096A0182E0B7
:1013D000C80ED11C1296BC9012971396AC91B5E032
:1013E000CB16D10440F0B282A38351834083D9014C
:1013F0006D937C930AC00E5F1F4FC301800F911F36
:10140000F90191838083EB2DFA2FE114F10431F07F
:10141000D7011396FC93EE93129744C0F0933003D8
:10142000E0932F033FC08D919C9111974817590766
:1014300008F4AC017D0112960D90BC91A02DB3CFA4
:1014400080912D0390912E0388159905E1F446179C
:101450005707C8F48091060190910701009741F465
:101460008DB79EB740910A0150910B01841B950BDB
:10147000E817F907C8F4F0932E03E0932D03F90160
:10148000718360830FC0CB010E9464087C010097C8
:1014900059F0A801BE010E94600ACE010E94F9081D
:1014A000C70104C0CE0102C080E090E0CDB7DEB736
:1014B000EEE00C94CE0A81E090E0F8940C94E50AFA
:1014C000FB01DC0102C001900D9241505040D8F761
:1014D0000895FB01DC0101900D920020E1F70895D1
:1014E000FB01DC0102C005900D9241505040D8F73D
:1014F0000895BB274A3031F4992322F4BDE2909538
:1015000081959F4F0C94850ABB27FB015527AA277D
:10151000880F991FAA1FA41710F0A41B8395505180
:10152000B9F7A05DAA3308F0A95DA193009779F7F8
:10153000B111B1931192CB010C949E0ADC01FC0114
:10154000672F71917723E1F7329704C07C916D93F7
:1015500070836291AE17BF07C8F308952F923F9230
:101560004F925F926F927F928F929F92AF92BF92B3
:10157000CF92DF92EF92FF920F931F93CF93DF935F
:10158000CDB7DEB7CA1BDB0B0FB6F894DEBF0FBEBC
:10159000CDBF09942A88398848885F846E847D8409
:1015A0008C849B84AA84B984C884DF80EE80FD800B
:1015B0000C811B81AA81B981CE0FD11D0FB6F89481
:0E15C000DEBF0FBECDBFED010895F894FFCF42
:1015CE00D300D3003C000000310380000000000077
:1015DE005801D4002101FF0013019F010D0A000ADA
:1015EE0052656365697665643A2000626974202FDE
:1015FE00200070726F746F636F6C3A2000202F2082
:10160E0050573A20007573202F2F2F20002B2B2B95
:10161E002B2B2B2B2B2B2B2B2B2B2B2B2B2B2B2B0C
:10162E002B2B2B2B2B2B2B2B2B2B2B2B2B2B2B2BFC
:10163E002B2B2B2B2B2B2B2B2B2B2B2B2B2B2B2BEC
:10164E002B2B2B2B2B2B2B2B2B2B2B2B2B2B2B2BDC
:10165E002B2B2B2B2B2B2B2B2B2B2B2B2B2B2B00F7
:10166E004D6F7665722052462054657374657220F4
:10167E002D2049442032323232006465766963652A
:10168E00207265616479002A00756E6B6E6F776EDD
:08169E0020636F64653A20002F
:107800000C94343C0C94513C0C94513C0C94513CE1
:107810000C94513C0C94513C0C94513C0C94513CB4
:107820000C94513C0C94513C0C94513C0C94513CA4
:107830000C94513C0C94513C0C94513C0C94513C94
:107840000C94513C0C94513C0C94513C0C94513C84
:107850000C94513C0C94513C0C94513C0C94513C74
:107860000C94513C0C94513C11241FBECFEFD8E036
:10787000DEBFCDBF11E0A0E0B1E0ECE9FFE702C060
:1078800005900D92A230B107D9F712E0A2E0B1E065
:1078900001C01D92AD30B107E1F70E942D3D0C945F
:1078A000CC3F0C94003C982F959595959595959582
:1078B000905D8F708A307CF0282F295A8091C0000B
:1078C00085FFFCCF9093C6008091C00085FFFCCF60
:1078D0002093C6000895282F205DF0CF982F809127
:1078E000C00085FFFCCF9093C6000895EF92FF92F1
:1078F0000F931F93EE24FF2487018091C00087FD22
:1079000017C00894E11CF11C011D111D81E4E8164B
:1079100082E4F8068FE0080780E0180770F3E09132
:107920000401F091050109958091C00087FFE9CF1E
:107930008091C6001F910F91FF90EF9008950E94D3
:10794000763C982F8091C00085FFFCCF9093C600B5
:1079500091362CF490330CF09053892F089597555D
:10796000892F08951F930E949F3C182F0E949F3CCF
:107970001295107F810F1F9108951F93182F882350
:1079800021F00E94763C1150E1F71F9108951F935A
:10799000182F0E94763C803249F0809103018F5F5E
:1079A000809303018530C1F01F9108958091C0003C
:1079B00085FFFCCF84E18093C6008091C00085FFE5
:1079C000FCCF1093C6008091C00085FFFCCF80E102
:1079D0008093C6001F910895E0910401F091050184
:1079E00009951F9108950E94763C803241F0809164
:1079F00003018F5F80930301853081F008958091AA
:107A0000C00085FFFCCF84E18093C6008091C00058
:107A100085FFFCCF80E18093C6000895E0910401CA
:107A2000F09105010995089540E951E08823A1F0FE
:107A30002D9A28EE33E0FA013197F1F721503040CA
:107A4000D1F72D9828EE33E0FA013197F1F7215064
:107A50003040D1F7815061F708953F924F925F9285
:107A60006F927F928F929F92AF92BF92CF92DF924E
:107A7000EF92FF920F931F93CF93DF93000080E16B
:107A80008093C4001092C50088E18093C10086E015
:107A90008093C2005098589A259A81E00E94143D24
:107AA00024E1F22E9EE1E92E85E9D82E0FE0C02ECA
:107AB00010E1B12EAA24A394B1E49B2EA6E58A2E50
:107AC000F2E57F2EE0E26E2E79E4572E63E5462E36
:107AD00050E5352E0E94763C8033B1F18133B9F107
:107AE000803409F46FC0813409F476C0823409F41B
:107AF00085C0853409F488C0803531F1823521F1A3
:107B0000813511F1853509F485C0863509F48DC0BC
:107B1000843609F496C0843709F403C1853709F423
:107B200072C1863709F466C0809103018F5F80932C
:107B30000301853079F6E0910401F0910501099582
:107B40000E94763C803351F60E94F33CC3CF0E94E2
:107B5000763C803249F78091C00085FFFCCFF092DF
:107B6000C6008091C00085FFFCCF9092C600809136
:107B7000C00085FFFCCF8092C6008091C00085FFC9
:107B8000FCCF7092C6008091C00085FFFCCF609250
:107B9000C6008091C00085FFFCCF5092C600809146
:107BA000C00085FFFCCF4092C6008091C00085FFD9
:107BB000FCCF3092C6008091C00085FFFCCFB09210
:107BC000C60088CF0E94763C863808F4BDCF0E945C
:107BD000763C0E94F33C7ECF0E94763C803809F4CC
:107BE0009CC0813809F40BC1823809F43CC1883942
:107BF00009F48FC080E00E94C73C6CCF84E10E94F2
:107C0000BD3C0E94F33C66CF85E00E94BD3C0E94D3
:107C1000F33C60CF0E94763C809306010E94763C44
:107C2000809307010E94F33C55CF0E94763C80333D
:107C300009F41DC183E00E94BD3C80E00E94C73C66
:107C400049CF0E94763C809309020E94763C809343
:107C5000080280910C028E7F80930C020E94763C79
:107C6000853409F415C18091080290910902892B8D
:107C700089F000E010E00E94763CF801E85FFE4FDA
:107C800080830F5F1F4F80910802909109020817AF
:107C9000190788F30E94763C803209F045CF809125
:107CA0000C0280FF01C16091060170910701660F0F
:107CB000771F7093070160930601A0910802B091AD
:107CC00009021097C9F0E8E0F1E09B01AD014E0F09
:107CD0005F1FF999FECF32BD21BD819180BDFA9A17
:107CE000F99A2F5F3F4FE417F50799F76A0F7B1F4B
:107CF00070930701609306018091C00085FFFCCF5F
:107D0000F092C6008091C00085FFFCCFB092C60003
:107D1000E1CE83E00E94C73CDDCE82E00E94C73CFA
:107D2000D9CE0E94763C809309020E94763C8093D3
:107D300008028091060190910701880F991F909386
:107D40000701809306010E94763C853409F4A6C0A1
:107D500080910C028E7F80930C020E94763C8032D0
:107D600009F0B8CE8091C00085FFFCCFF092C6002C
:107D7000609108027091090261157105B9F140E046
:107D800050E080910C02A82FA170B82FB27011C0E2
:107D9000BB2309F45CC0E0910601F0910701319624
:107DA000F0930701E09306014F5F5F4F46175707B7
:107DB000E8F4AA2369F3F999FECF209106013091E6
:107DC000070132BD21BDF89A90B58091C00085FFB2
:107DD000FCCF9093C6002F5F3F4F30930701209355
:107DE00006014F5F5F4F4617570718F38091C00099
:107DF00085FDE5CE8091C00085FFF8CFE0CE81E023
:107E00000E94C73C67CE0E94763C803209F08CCE3F
:107E10008091C00085FFFCCFF092C6008091C00029
:107E200085FFFCCFE092C6008091C00085FFFCCFAB
:107E3000D092C6008091C00085FFFCCFC092C600E2
:107E40008091C00085FFFCCFB092C60043CEE09188
:107E50000601F091070194918091C00085FFFCCF4D
:107E60009093C6009CCF80E10E94C73C33CE0E9415
:107E7000763C0E94763C182F0E94763C112309F430
:107E800083C0113009F484C08FE00E94C73C22CE29
:107E900080910C02816080930C02E5CE80910C02EF
:107EA000816080930C0259CF809107018823880F4D
:107EB000880B8A2180930B02809106019091070123
:107EC000880F991F90930701809306018091080203
:107ED00080FF09C080910802909109020196909359
:107EE000090280930802F894F999FECF1127E091D6
:107EF0000601F0910701C8E0D1E08091080290915D
:107F00000902103091F40091570001700130D9F34B
:107F100003E000935700E89500915700017001308D
:107F2000D9F301E100935700E89509901990009169
:107F3000570001700130D9F301E000935700E89534
:107F40001395103498F011270091570001700130FB
:107F5000D9F305E000935700E895009157000170B0
:107F60000130D9F301E100935700E895329602976A
:107F700009F0C7CF103011F00296E5CF112480919F
:107F8000C00085FFB9CEBCCE8EE10E94C73CA2CD19
:0C7F900085E90E94C73C9ECDF894FFCF0D
:027F9C00800063
:040000030000780081
:00000001FF
